:020000040000FA
:10000000D3889B8C0F015D6B5C6B8B68946AF19E4F
:100010005B699368926AF90E926E040E896E24D819
:10002000F90E926E020E896E1FD8FC0E926E010EB2
:10003000896E1AD8FC0E926E020E896E15D89F0E2C
:10004000926E200E896E10D89F0E926E400E896EB1
:100050000BD83F0E926E400E896E06D83F0E926E00
:10006000800E896E01D8D7D70A0E006E006601D0C7
:10007000120000060168016601D0F8D70106026887
:0A008000026601D0F8D70206FBD794
:020000040030CA
:040000003338590038
:0200050076EE95
:060008000FFF0FFF0F7F48
:00000001FF
