:020000040000FA
:10000000D3889B8C0F015D6B5C6B8B68946AF19E4F
:100010005B6993683F0E926E800E896E006A004E97
:1000200005D0000E010F01E1FAD7FCD781A04DD019
:1000300081A242D081A437D081A62CD081A821D022
:1000400081AA16D081AC0BD081BE47D0800E8B6EBA
:100050003F0E926E800E896E81AEFED73ED0400E6E
:100060008B6E3F0E926E400E896E81ACFED735D0FE
:10007000200E8B6E9F0E926E400E896E81AAFED767
:100080002CD0100E8B6E9F0E926E200E896E81A862
:10009000FED723D0080E8B6EFC0E926E020E896E78
:1000A00081A6FED71AD0040E8B6EFC0E926E010E46
:1000B000896E81A4FED711D0020E8B6EF90E926E5E
:1000C000020E896E81A2FED708D0010E8B6EF90E4A
:1000D000926E040E896E81A0FED78B689268A6D7B7
:020000040030CA
:040000003338590038
:0200050076EE95
:060008000FFF0FFF0F7F48
:00000001FF
