:020000040000FA
:020000001928BD
:10000800F000030E8301F100210884001A08800023
:10001800A10A2108F03C031D1328A030A100A00A62
:10002800710E8300F00E700E0900A030A100A2002E
:10003800A001A501A701A301FF30A4008501860145
:10004800870103179E019F01831603130F1681135F
:10005800FF30850095007F308600831203179500D6
:1000680083160313F030870019309900181583128E
:1000780098171816181683169816831283168C1656
:1000880083120B178B174B207E205A204728241CDD
:100098005428851A5428051A5328A30A5428A30358
:1000A800851E582824140800241008008316981C5C
:1000B8007C28831205090739061E0838A60025067C
:1000C800031D27142308031D2714271C08002710C5
:1000D8002608A500A800A31F7428A30A28167928B3
:1000E800230803197928A303A816280899000800EB
:1000F80083120800A008031908008B1300002208C7
:10010800840000088B179120A003A20A2208F03C63
:10011800031D0800A030A2000800A900F839031D3B
:100128000800291DA528A91C9F28291C9D2887157A
:10013800080007150800291CA328871408000714BD
:100148000800A91CAD28291CAB2887110800071135
:0E0158000800291CB1288710080007100800B5
:02400E00E400CC
:00000001FF
